:10000000C082002079580000317B02006558000052
:1000100065580000655800006558000000000000A9
:10002000000000000000000000000000695900000E
:1000300065580000000000000559000065580000E8
:10004000555B000065030300555B0000555B000035
:10005000555B0000555B0000555B0000555B0000E0
:10006000555B0000555B0000555B0000555B0000D0
:10007000555B0000555B0000555B0000555B0000C0
:10008000555B0000555B0000555B0000555B0000B0
:10009000555B0000555B0000555B0000555B0000A0
:1000A000555B0000555B0000555B0000555B000090
:1000B000555B0000555B0000555B0000555B000080
:1000C000555B0000555B0000555B0000555B000070
:1000D000555B0000555B0000555B0000555B000060
:1000E000555B0000555B0000555B0000555B000050
:1000F000555B0000555B0000555B0000555B000040
:1001000053B94AB9002908BF00281CBF4FF0FF317E
:100110004FF0FF3000F00CB8ADF1080C6DE904CEE3
:1001200000F008F8DDF804E0DDE9022304B07047D0
:10013000704700BF2DE9F04786468C460846089E6A
:10014000154674461946002B40F0C2808542B2FA2B
:1001500082F245D94AB1C2F1200300FA02FC2EFA1C
:1001600003F3954043EA0C0C94404FEA154EA8B2B5
:10017000BCFBFEF8230C0EFB18CC08FB00F943EA8D
:100180000C43994528D9EB1808F1FF3704D299455B
:1001900002D9A8F102072B44A3EB0903A4B2B3FBD5
:1001A000FEFC0EFB1C330CFB00F044EA0344A042AF
:1001B00014D92C190CF1FF3304D2A04202D9ACF1AE
:1001C00002032C44241A43EA07401EB1D440002302
:1001D00034607360BDE8F0874746DDE76346F1E7CA
:1001E00092BB431B01214FEA154EAFB2B3FBFEFC9D
:1001F000200C0EFB1C330CFB07F840EA0343984528
:1002000062D9EB180CF1FF3004D2984502D9ACF159
:1002100002002B44A3EB0803A4B2B3FBFEFC0EFBCD
:100220001C330CFB07F744EA0344A7424ED92C19B0
:100230000CF1FF3304D2A74202D9ACF102032C44E3
:10024000E41B43EA0040C0E7C2F1200320FA03F1B7
:10025000954090402EFA03F303434FEA154EAFB298
:10026000B1FBFEFC0EFB1C10190C0CFB07F841EA5D
:100270000041884504FA02F422D969180CF1FF30D4
:1002800004D2884502D9ACF102002944A1EB08014F
:100290009BB2B1FBFEFC0EFB1C110CFB07F743EA03
:1002A00001439F420ED9EB180CF1FF3104D29F425B
:1002B00002D9ACF102012B44DB1B41EA004192E779
:1002C0006046E3E76146F7E76046A3E76346B7E7C2
:1002D000834206D916B9002108467BE7C6E900E04B
:1002E000F9E7B3FA83F78FB9834201D3724508D88F
:1002F000BEEB020460EB030301209C461EB9002103
:1003000068E73846FAE7C6E9004CF8E7C7F1200C81
:10031000BB4022FA0CF41C432EFA0CF120FA0CF329
:10032000B84001434FEA14490EFA07F5B3FBF9F858
:100330001FFA84FE09FB18300B0C08FB0EFA43EA87
:1003400000439A4502FA07F240D9E31808F1FF305A
:1003500004D29A4502D9A8F102002344A3EB0A0370
:1003600089B2B3FBF9F809FB183308FB0EFE41EA2A
:1003700003418E452CD9611808F1FF3304D28E4514
:1003800002D9A8F10203214443EA0040A0FB0298ED
:10039000A1EB0E014145CE46434602D306D14D4561
:1003A00004D2B9EB020E68EB04030138002EA6D08C
:1003B000B5EB0E0261EB030101FA0CFC22FA07F324
:1003C0004CEA0303F940C6E9003198E74046C5E727
:1003D0004346D9E710F8012B11F8013B012A28BF49
:1003E0009A42F7D0D01A7047034611F8012B03F850
:1003F000012B002AF9D17047034613F8012B002A7C
:10040000FBD1181A013870472DE9F0470F46D0E9A3
:100410000AA1D0F83090DFF8688001EB090430348D
:10042000A245164614A3D3E9002314D8A1FB080162
:10043000FFF766FE10A3D3E90023A4EB0A0420F023
:100440007F45A4FB0801FFF75BFE20F07F403D6085
:100450003060BDE8F087AAFB0801FFF751FE20F0ED
:100460007F4509F1300004A3D3E90023A0FB080174
:10047000E9E700BFAFF300808D49FD1A07000000D7
:1004800000CA9A3B000000002DE9F04F8DB099465C
:10049000179C636C074688461546A3B1B4F87E30B6
:1004A00023B1B4F87C209A4280F0B380D4F8801055
:1004B00049B1226F40F27123A2FB03238A4273F1F8
:1004C000000380F0A6804FF6FF73994536D023785D
:1004D0000133DBB2237063B9514A5249524840F6A6
:1004E000221325F0F8FC404080F311884FF0030000
:1004F00002DF4E499DF858308B7204F11C03CB602B
:100500004B4BA1F808900022C1E9007599600120C9
:10051000114613F07FF960B1414A4649424840F61E
:10052000441325F0D8FC404080F311884FF00300BD
:1005300002DF636C13B1204617F068FE94F8245074
:1005400015F0010565D104210BA82FF02AFF0B9BA4
:10055000069440F24712B3FBF2F102FB1133364A24
:100560008821A21AB2FBF1F234490232CDE90451DA
:100570000133CDE90255CDE90055D2B2012128461B
:100580000B932DF0F6FF10F0FD0F0CD0244A2C49F0
:10059000254840F2937325F09EFC404080F311887B
:1005A0004FF0030002DFD4F88070B4F87C30DDF83F
:1005B0002CA0099309F101093FB333B3214D266FF4
:1005C000A8FB050140F271234FF0070B5E430BFBC4
:1005D000081111A3D3E90023FFF792FD06FB09F3ED
:1005E00003EB0008AAFB05010BA3D3E900230BFBD7
:1005F0000A11FFF785FD30444044874286BFA7EBD0
:100600000807C4F88070C4F88060099B4B44A4F8C4
:100610007C300DB0BDE8F08F00CA9A3B00000000AE
:10062000D9450300F2460300FB3D0300E43B0020F4
:10063000A80C0020E9430300103C002035710100A4
:10064000F64603008D49FD1A2DE9F04F91B0CDE932
:100650000B23054621B911B0BDE8F04F17F0A6BA3B
:100660007E4C94F8843003F00103034320D194F8C6
:10067000293004EB8303D3F82C9094F8353004EB45
:100680008303D3F838A0BAF1000F4DD199F80030A8
:1006900003F00F03072B39D004F134001BF066FE82
:1006A000C0B2002834D00725284611B0BDE8F08F2D
:1006B0002EF07EF9002800F07281284617F068FAC3
:1006C000044618B390F8352090F8293000EB8202E8
:1006D00000EB8303926BD96A2EF0F1F905460028EE
:1006E000E2D1236C93B11A7902F0FF0152B90C9A4E
:1006F000A4F87C100B99A4F87E2042F210725143AA
:10070000C4F880101B79002B00F049810C25CBE741
:1007100094F8353004EB8303D3F838A004238AF827
:10072000003006238AF801304C48524649462EF0E4
:10073000C6F905460028B7D199F8003013F00E0F1E
:1007400007D003F00F03072B6DD199F8023059063B
:1007500069D5236A002BD9D114F06AF880460028A5
:10076000A1D014F0EDF8834618B9404614F066F8AD
:1007700099E718F095FC074618B9584614F0E6F8C2
:10078000F3E74FF6FF720285826E00F11C030D93B2
:1007900012B900F16002826607F15C0207F15801AC
:1007A000B86E2DF0FCFB97F86E1021F0070187F86A
:1007B0006E1097F8391001F03F0161F07F0187F862
:1007C000391097F83C1021F00701002687F83C10FB
:1007D0000621A7F822113846C7E91266BE66A7F8B7
:1007E0006C60FE853E6387F83B603E65A7F8266136
:1007F0002FF016F887F8F060C7F8F48007F1700062
:100800002EF02AFF07F11C03C4E91A8B2362C7E903
:1008100005663E70FF611BF053FC20B10F4816F0D7
:10082000BFFC032540E72EF0C3F8002800F0BF808E
:1008300013F0FEFF804638B9236A002B3FF433AF34
:10084000064816F0ADFC2EE714F07AF840B9236A9A
:10085000002B8AD0014816F0A3FC86E7103C00204C
:1008600000230371C0F8008094F824302064DA0774
:1008700040F197800026374694F82430A4F87E6033
:10088000C3F34203002601210DF13B00C4F8807040
:10089000A4F87C6094F825708DF83B302DF0ABFB0C
:1008A000C7F382070246002800F0D08051463B463D
:1008B00048462EF09CF831236B492670C4E9023675
:1008C0006A4B6660A0FB0101C01841F1070164A3F7
:1008D000D3E90023C4E90566FFF712FCB4F870A061
:1008E00020612DF05EFE00F10E08BAF1000F06D176
:1008F00099F8006006F00F06731E5E425E4194F8A0
:100900002490D4F810B066F3000984F8249019F00C
:1009100001090FAF4DD0564BDFF8589100201860F9
:10092000CDE90873544B4FF0020ACDE904B35246A7
:1009300043460321CDE90649CDE90200CDE9000B8C
:10094000CDF83CA02DF0F3FD394614F0B9FA064677
:1009500000287BD1494B0694CDE904034AF2D833F1
:100960000093CDE90797CDE90200019043460122AB
:100970000321CDF83CA02DF0E1FD394614F0A0FA9A
:10098000002863D12DB196F84E3043F0010386F86C
:100990004E3094F8843043F0010384F8843000250D
:1009A00082E60B9F0C9E42F210735F4364E7206463
:1009B00060E7666C06B336680BF1020343443946C0
:1009C00030460F9300F080FCD4F870E0054640F20A
:1009D000712C42F6DC30494640F2E2420023EEFB45
:1009E0000C01FFF78DFBB0870F992A46304600F0C7
:1009F000ABF858BB4FF001091D4B21480BF24712D1
:100A00001A60CDE908731B4BCDE906431A4B4FF032
:100A1000910CCDE904B3AAFB00014FF0000B4FF697
:100A2000FF730225CDE902B30CFB0A110CA3D3E935
:100A300000230F95FFF764FB2A46CDE900B043463B
:100A4000032158462DF073FD4D4696E7236A002B8F
:100A50003FF45CAE0B4816F0A3FB57E6AFF3008003
:100A60008D49FD1A0700000000CA9A3B8C49FD1A07
:100A7000043C00202548010089040000B9700100F1
:100A8000002AE784103C0020F0B590F8243090F85C
:100A900025708BB00D46C3F34203044601210DF1CE
:100AA000230016468DF823302DF0A5FAC7F38207F0
:100AB00002463B46314628462DF099FF1E49A0FBD1
:100AC00001311E48181841F1070119A3D3E9002389
:100AD000FFF716FB216905468D4220D2481B0021F5
:100AE000174A02230993A21A8823B2FBF3F2154B8B
:100AF000059309AE00230232CDE90110CDE903339D
:100B0000032106960093D2B218462DF032FD3146ED
:100B100014F0D6F938B9256100200BB0F0BDFBD92F
:100B2000691A0020DCE70C20F7E700BFAFF3008074
:100B30008D49FD1A0700000000CA9A3B8C49FD1A36
:100B4000103C0020254801002DE9F04700268CB01C
:100B5000C0E90566067004468846174617F0E6F9B0
:100B60000546A08F1C4940F2E243584302230B93F1
:100B7000A0FB010116A3D3E90023FFF7C1FA194630
:100B8000164BCDE906430DF12C0A154BCDF820A0EC
:100B90000593236981461F44104600234FF47A725F
:100BA000CDE90367FFF7ACFA0335EDB2CDE901906B
:100BB00043462A460096032130462DF0BFFC51469D
:100BC00014F07EF90CB0BDE8F08700BFAFF30080F1
:100BD0008D49FD1A0700000000CA9A3B2548010014
:100BE000457E0100000000002DE9F04FA3B01F4634
:100BF0002C9B16932D9B179340F201238B43099056
:100C00000D9115920CD18D4A8D498E4840F2ED53CD
:100C100025F061F9404080F311884FF0030002DFB6
:100C2000099B099A93F8293002EB8303DB6A0A9344
:100C30001B7803F00F030E930D9B03F400731093C6
:100C40000E9B072B0DD0109B13B90C230E934BE07A
:100C5000D7F801203978099823B0BDE8F04F2DF07E
:100C600079BF0A9B9A7812F03F0B18BF93F803B034
:100C7000109B13B17F2A00F21983099B169903F187
:100C8000280003F11C042FF020FC0A9B027819783D
:100C900022F03F02034601F00F010A4303F8022B42
:100CA0001E930A9B81789A78099B920962F38711B7
:100CB00081700546586C4FF0000A00286AD1204622
:100CC00017F06AF90B9098B90A9BAB420CD15B4ABA
:100CD0005D495C484FF4C46325F0FDF8404080F363
:100CE00011884FF0030002DF0E9823B0BDE8F08FAB
:100CF0000B9B93F8312003EB820203F11C00536B32
:100D00001A4612F8021B149201F03F0119700121DA
:100D1000597083F803A01799089314302FF0D5FB6E
:100D2000044601782878089B00F00F0021F03F016D
:100D30000143217019782078C1F3801161F3861086
:100D400020701978C0B2C90961F3C7102070A97862
:100D5000A0784FF001028DF820200AF001028909E5
:100D60001D920D9A61F38710A07012F001000BF034
:100D700001011AD017F801CB26786CF3861626707D
:100D80002E786FF386162E70002932D00A9A02F15F
:100D90000A0831E0427D03680B9300EB82029369FD
:100DA0009A1C93F803A01492B5E761B10A9A2678C9
:100DB0001178C1F3801161F386162670297860F3EB
:100DC00086112970E2E70AF0010181B119782678CD
:100DD0000A9AC1F3801161F386162670297860F3B0
:100DE0008611297002F1040803F10A0609E01F23A5
:100DF0002CE70A9A02F104080AF001010029F3D154
:100E00001E1D0AF002021BF0020F1C921ED04FF0B2
:100E100003028DF820200A9A20781178C90961F31D
:100E2000C710214608F1060801F8100B28780AF0CF
:100E300002026FF3C7102870B2B16CE08E47030056
:100E4000E9470300FB3D03003648030004F10A01B3
:100E50000028EBD10AF00202002A49D195F800C01F
:100E600060F3C71C85F800C01BF0080218920D9AA9
:100E700018BF08F1020812F00800089A08BF119084
:100E800042F0080208921FBF0220D7F801203870F4
:100E9000C7F801101CBF119205371AF00802199209
:100EA00018BF02361BF010021A924FF018028DF88C
:100EB0004C2005F109020C920AF010021F920D9AC3
:100EC00018BF08F10308D20601F1020925D5089AD6
:100ED000C7F8019042F010020320387008920537DD
:100EE0000AF01002002A00F0AB8000220F9221E0ED
:100EF000197894F800C0C90961F3C71C21464FF066
:100F0000030201F810CB95F800C08DF8202060F3A3
:100F1000C71C85F800C00636A6E7159AD006DFD4B0
:100F20000AF01002002A00F08B80089A0F9642F017
:100F3000100208920336089AD20648BF01F105094B
:100F40001BF0400F14D0099A92F8251001F01C01F3
:100F500010290DBF089A58228DF84C2042F040020B
:100F600018BF05F10A0208F1010814BF0C9208929B
:100F70001AF0400F18BF089A1E9993F801A01CBFE1
:100F800042F0400208929DF820201292089A18BF61
:100F9000013612F040021B920C9AA2EB01015FFA9B
:100FA00081FE18BF09F10109BEF1020F9CBFEA1CC6
:100FB0000C92149AA6EB0202D1B298BF4FF0010E28
:100FC00002299CBF0121DE1C8A45FFF410AFA21C40
:100FD000A9EB0202D2B21098022A9CBF04F10309C5
:100FE000012288B3AAEB010197F800B05FFA81FAF9
:100FF000D7F8011087F800A0C7F801600846053748
:10100000BBF1000F42D1002946D0DA46CDF834B00A
:10101000DC46CDF840B01098104460445F284ADDAB
:101020005F3A5A4452443A700A9AAA4201BF169A49
:101030000999127881F829209C4236D0452305E68B
:101040000AF010020F9276E70D98400512D5AAEB30
:1010500001015FFA81FAD7F8011097F800B00D91FD
:10106000053731460AEB0B001F28CDF840A0DC46BF
:10107000D1DD39E61598800511D410980D90AAEBB2
:10108000010A5FFA8AFA31468346EBE7DA464FF007
:10109000000BCDF834B0E5E731460D90E2E710994A
:1010A0000D918A468B468C46B5E7099B179A5B6C77
:1010B00012785A75C2E7A87885F801E00EF1FF377B
:1010C00067F30500A870A078571E67F30500A070AD
:1010D0000BEB0A00024462704846524631F02EF88B
:1010E0000D9B2BB15A46194609EB0A0031F018F84E
:1010F000A378990600F0AB80139B5A0640F1A980B3
:101100000C9A18F8013C02F8013C531E0C9308F1AC
:10111000FF381A9B0BB1A8F10308099B93F825200F
:101120000C9B5209D81E00212EF069F81F9B03B1B9
:10113000033E129BDB060F9B48BFA9F1030923B1B5
:1011400003221946484630F0F9FF189B0BB1A8F16D
:101150000208199B03B1023E119B002B40F08580D1
:10116000099B93F87A0000F00F0016F0D3FE0C9B59
:101170000C99C2B203F8052C099B93F87A30C0F39E
:10118000032000EB031301F8043C099B09F8022C2F
:1011900093F87A3000EB0310129B09F8010C9F07BB
:1011A0006CD4A9F10203129AD0070CD51D9A002A1B
:1011B00075D0A6F10608D8F8002043F8062CB8F838
:1011C000042023F8022CAB7899061CBF9DF84C3004
:1011D000EB70A3789A061CBF9DF82030E3700B9B40
:1011E00093F84E30DB0732D50B98334D334C2DF04E
:1011F000AFFD0721E0FB05412DA3D3E900232046E5
:10120000FEF77EFF0B9B1D6920F07F44AC4249D264
:101210002F1B002502230B98219316F087FE284BE5
:101220000593C21C002321AE0321CDE90333CDE990
:10123000015706960093D2B218462DF09AF931461E
:1012400013F03EFE00287FF400AD0B9B1C610023D1
:10125000FCE41B9B002B3FF45CAF16F8013C09F843
:10126000013C013E09F1FF3953E7119B119A5B786C
:1012700010781B0203F47063184378E71C9B53B18A
:10128000063E3246116849F8081C928829F8042C59
:10129000A9F1080387E7A8F106084246F2E7A8F19A
:1012A000060888E7D3D9651B0027B3E71223CDE4EE
:1012B0008D49FD1A0700000000CA9A3B8C49FD1AAF
:1012C00025480100000000002DE9F34104461C4EB2
:1012D0001C4F88462DF03CFD0725B4462946E0FB0F
:1012E00007C1002331226046C4E90132E36012A342
:1012F000D3E90023FEF704FF5F2220F07F40114670
:10130000206120462DF0DAFF2946E0FB07610AA3A1
:10131000D3E900233046FEF7F3FE01A920F07F4019
:101320001AF08CF818B9019B0233C8F8003000207D
:1013300002B0BDE8F08100BF8D49FD1A0700000032
:101340008C49FD1A00CA9A3BF8B51E46C37804467C
:10135000D8071B484CBF0A3404341546A1FB0007CC
:101360009A074FF0070C48BF06340CFB01711B07AE
:1013700011A3D3E9002348BF0234FEF7C1FEAD1B21
:10138000284422781E21B0FBF1F14B0B18BF01233A
:1013900063F3C712A378227018BF4FF4967123F03D
:1013A0001F0318BFB0FBF1F16170C1F304211943B1
:1013B000A1702046F8BD00BF00CA9A3B00000000A3
:1013C0008D49FD1A000000002DE9F04F044690F809
:1013D000460094F820304A4EDFF828916FF3000061
:1013E00084F84600C0F3800060F386138DB084F863
:1013F000203004F12D012DF0F1F8A58E94F8203065
:10140000E4614FF00008A5FB060103F07903912782
:1014100007FB0511C4E9058884F8203084F80080B2
:1014200035A3D3E90023384DFEF76AFE3123C4E922
:101430000238651B4823B5FBF3F5E36BA3630E335A
:1014400098429CBFC4F81080C4F83880C4F8048067
:10145000EDB24FF00C0808FB05FB94BF0346236177
:1014600049F80B3007462DF09CF802230B9309EB4B
:101470000B030993254BCDE906430DF12C0B244BAF
:10148000CDF820B00593236904934FF00009CDF8FF
:101490000C90B4F834C000F10E0AACFB06019126A2
:1014A00006FB0C1114A3D3E90023FEF729FE104616
:1014B00019464FF47A720023FEF722FE0535EDB28D
:1014C000CDE901700321CDF8009053462A464846E5
:1014D0002DF02DF8594613F0F3FC40B994F846303E
:1014E00043F0020384F846300DB0BDE8F08F40466B
:1014F000FAE700BFAFF300808D49FD1A0700000036
:10150000002AE784343D0020403D002025480100AA
:10151000E5830100000000002DE9F04105460020B0
:101520001646984617F086F90446B0B36B0813F0D8
:10153000040732D190F82C2031B967F3020280F809
:101540002C203846BDE8F08163F3020290F8463063
:1015500080F82C2068F3830380F846309DF818301B
:1015600081866D01DB0003F0180305F020051D43A3
:1015700090F8203023F038031D4380F820500A48AB
:101580009125A6FB000106A3D3E9002305FB061164
:10159000FEF7B6FDC4E90E00D3E70C27D1E700BF84
:1015A0008D49FD1A07000000002AE78400000000B2
:1015B0002DE9F04F0B798FB0062B0B900D4604D020
:1015C000092B51D040F2451382E0D1F80890D9F8A8
:1015D00008305BB1A24AA349A348902324F07BFCC6
:1015E000404080F311884FF0030002DFD9F800B0CB
:1015F000584617F0E5F80022471DFFB24FF0010AE8
:10160000144616460B9B2B606B7E002161F304137E
:101610006B766B7FE9602BB1A97F880640F08F80E5
:10162000013BDBB2002C00F0F380A28E13449BB28E
:10163000A3866B83BBF1000F0CD1894A8B498A4882
:1016400040F2E92324F047FC404080F311884FF03A
:10165000030002DF9BF84620236BD20740F12A8269
:101660009D4240F0BB803EE0D1F80890D9F80040A0
:10167000204617F02DFB002838D0D4F82880B8F188
:10168000000F0BD1764A7A497748BC2324F023FC1B
:10169000404080F311884FF0030002DF7549382283
:1016A00020462CF05DFC871D4E46FFB2C146D9F89E
:1016B000000017F099F896F805A00AF0070ABAF1A9
:1016C000010F834633D0BAF1020F36D040F2031334
:1016D000634A6949644824F0FEFB404080F3118866
:1016E0004FF0030002DF0FB0BDE8F08FD9F80860BB
:1016F0005EB95B4A61495C48CD2324F0ECFB404075
:1017000080F311884FF0030002DF3468A36A994523
:101710000BD0534A5A495448D02324F0DCFB4040B4
:1017200080F311884FF0030002DFFF27BFE7062395
:101730006A7E2B71C2F3800264E70723F8E795F90C
:101740001F10E87F0029C0F2B181C1074CBF05F12D
:10175000260105F1200110F0020F18BF063110F02C
:10176000040F18BF013110F0080F18BF0231AC464A
:1017700010F010081CBF8846033110F0200F18BF6E
:10178000123140061CF81E0F48BF0131C0F305009E
:101790000130A1EB0C01C9B2C0B2814238BF014691
:1017A0008B4286BF5B1ADBB20023B8F1000F39D041
:1017B00098F8020098F801C0010201F4F85151EACA
:1017C0000C012FD06AB1002C36D0A28E13449BB2EC
:1017D000A3866B83236B002B2FD0236BDD602563E7
:1017E00081E73F283FF61EAF002C40F0828025485D
:1017F000CDE90C232CF08FFBDDE90C2304460028F7
:1018000044D16B7E980604D543F010036B7600E05C
:101810006B830B98294613F0C1FA0FB0BDE8F04F67
:1018200013F0C6BABCB1A18E0B449BB2A3866B83E6
:10183000002A3FF4FFAECDE76B83094A12490A48FC
:1018400040F2E51324F047FB404080F311884FF04D
:10185000030002DFC1E76B83002ADAD0EDE700BFA7
:101860001249030083490300FB3D03007E49030046
:1018700068430300B43D0020F75303008949030087
:1018800091490300B03D0020A4490300838690F8ED
:1018900020300270C0E90B22C0E9052262F3C713B1
:1018A00000F11C0680F82030C061C0F82890236B3E
:1018B00033B3DD60A38E25636B8398F80020337902
:1018C00062F30503337198F8022001235209934013
:1018D000727963F3020272716B7E990612D543F03E
:1018E00010036B76C9F8086033796FF38613337190
:1018F000F9E6A28E13449BB21E2BA386D7D999E694
:10190000E562D7E7BBF1000F0CD1794A79497A48F3
:1019100040F2562324F0DFFA404080F311884FF064
:10192000030002DF9BF8463013F001037FF492AE10
:10193000C9F8083098F9003070797049002BACBFB5
:101940001E234FF49673B36098F802B098F8012004
:101950004FEA0B2B0BF4F85B4BEA020B98F80020D4
:1019600012F0400F14BF32224FF4FA7203FB0BFB4C
:1019700002FB0BF2B2FBF1F909F1300203EB420377
:10198000B360012100F007002EF034FD6B696A7F1F
:10199000DFF86CC1A3F130080AF0030313440933E4
:1019A000DB00CAF3400A23FA0AFAA8EB0A0831233B
:1019B0004FF0000AC4E901A3C4F80CA07279514E9B
:1019C00002F003030933C2F34002DB00D34003F506
:1019D000EA73D844A8EB000807211844E0FB06C1CD
:1019E000604641A3D3E90023FEF78AFB20F07F4045
:1019F0002061A8EB09003CA3D3E90023A0FB06016A
:101A0000FEF77EFB524620F07F460221012011F0B6
:101A1000D9FEFF2F19D02B693F3BCDE900AA3344F3
:101A20003A460121504612F0F3FC10F0FD0F0CD0A5
:101A30002F4A3549304840F2BF2324F04CFA404049
:101A400080F311884FF0030002DF3049382220462E
:101A50002CF086FA2E492B690894CDE906412D49D0
:101A6000059121690491821D0020CDE90200CDE994
:101A700000603F3BD2B201212CF060FD10F0FD0F61
:101A80000CD01B4A24491C4840F2CF2324F023FAEF
:101A9000404080F311884FF0030002DF0122022151
:101AA00010460FB0BDE8F04F11F08CBE002C3FF493
:101AB000B0AEBFE5DD60A36A256363B90C4A174980
:101AC0000D4840F2113324F006FA404080F31188AB
:101AD0004FF0030002DF20460FB0BDE8F04F16F0D4
:101AE000D7BF00BFAFF300808D49FD1A070000008B
:101AF000124903007E490300FB3D030040420F00F2
:101B00008C49FD1A00CA9A3BB8490300B43D002035
:101B1000598B01008D890100E549030098490300B4
:101B20002DE9F04705468AB08A46012002219946F0
:101B300014461CF0F3FF002202218046012011F020
:101B400041FE284617F0B8FAC61DF6B2344B009590
:101B500032460121002012F097FC10F0FD0F0CD04E
:101B6000304A3149314840F6320324F0B4F940405C
:101B700080F311884FF0030002DF2D4FA4FB0747CD
:101B800025A3D3E9002320463946FEF7B9FA294BAD
:101B90000895CDE90653284B05932B6904934FF61E
:101BA000FE730393254B20F07F45A5FB03310722ED
:101BB000E01A02FB051167EB01014FF47A72002372
:101BC000FEF79EFACDF800A0CDE901504B46324613
:101BD000012100202CF0B2FC10F0FD0F0CD0114AB6
:101BE0001149124840F6470324F075F9404080F34C
:101BF00011884FF0030002DFB8F1000F07D0012277
:101C0000022110460AB0BDE8F04711F0DBBD0AB072
:101C1000BDE8F087AFF300808D49FD1A0700000092
:101C200049900100314A0300B8490300FB3D03001D
:101C300000CA9A3BF18F010019B301008D49FD1ACA
:101C40002DE9F04F85B00446BDF844900393CDE9EB
:101C50000112BDF838A02DF0E2FCA368D4F8AC6006
:101C6000A0EB0905002B8346ADB209DAE168626892
:101C700023F0004391422CBF7618B618A360F61AE1
:101C8000638D5B4F13FB05F39BB2B3FBFAF11AFBB9
:101C900001F080B283421FFA81F840F2E24280F004
:101CA0008380C01A5043A0FB07014FA3D3E9002350
:101CB000FEF726FA20F07F400644E38DB4F8B42006
:101CC0001344994494F83930A9EB0B09C14440F20C
:101CD000E24BDB09A4F82E900BFB0AF971D0226CC1
:101CE000A36C02FB1533A3642EF0B8FB054694F8F1
:101CF0001401C0F342001AF031FA029A3D4B054438
:101D00000BFB02F2226509FB05F50022C4F81C2139
:101D100005F57425A26C05F23F25B5FBF3F54FEAF6
:101D2000590305FB08F0963B0244256463649A421C
:101D300094BFA264A364A0FB07012BA3D3E90023F3
:101D4000FEF7DEF9039B361AB3FBFBF00BFB00F04A
:101D5000A0FB070124A3D3E90023FEF7D1F9A9EBE7
:101D6000050520F07F47BDF83C30A385BDF8403025
:101D7000A4F82431A4F82AA04946204617F0AEFE64
:101D8000019B13B10023A4F8263133462A46394675
:101D90002046FFF7C5FE94F8203143F0010384F894
:101DA000203105B0BDE8F08F0AFB113080B25043FE
:101DB000A0FB07010CA3D3E90023FEF7A1F9361A13
:101DC0007BE70D4A0D490E4840F6BD0324F083F829
:101DD000404080F311884FF0030002DF00274D469A
:101DE000C1E700BFAFF300808D49FD1A0700000076
:101DF00000CA9A3B40420F00314A0300F7530300E8
:101E0000FB3D0300000000002DE9F04F0B68154674
:101E10000446D3F800801346027FD0F81E0053F822
:101E2000086B93B0C2F38017628CADF84420109019
:101E300012AA894612E903002246ADF83C1052F876
:101E40002E1B0C91E18D298192789A70D4F82A305A
:101E50006B60D4F83A300E90AB6105F1180094F83D
:101E60003E30037105212CF0C6F86B7F00F03F0077
:101E700060F305036B7794F83F30C3F30402AA774D
:101E8000A28EEA81012803F01F0391B205D91B330A
:101E900003F01F030B2B00D8B9B90022C8F8142097
:101EA00095F820300C9862F3000385F82030012665
:101EB000E5682671214612F071FF28682E712946C7
:101EC00013B0BDE8F04F2CF0B2BBD9F800300022BF
:101ED0005A60E38E2B82638EEA890D9340F2E243CF
:101EE00003FB02FBD8F84420002A00F07C8198F81C
:101EF000251040F6C41240F6A6637F2988BF1A4613
:101F00000B92002130462DF0BCFC94F83F3096F83F
:101F100014215B0963F3430286F814212EF09EFA24
:101F2000824696F81401C0F342001AF017F90AEB42
:101F300000030BFB03F303F57423AF4A03F23F23C3
:101F4000B3FBF2F36B624FEA5B03963BAB6294F830
:101F5000313040F2E2425343AB63238FA6F8243181
:101F60005946304617F0BAFDA44BC6F828316B68C5
:101F7000C6F81831D8F84430002B40F0368194F878
:101F80001CA0CAF3401AE2070BD59D4A9D499E4802
:101F9000F82323F0A0FF404080F311884FF00300A6
:101FA00002DF4FF48073A3830E98BDF83C30A7770F
:101FB000C4F81F00A4F82330EB89E3842B8A23851F
:101FC000B6F82431638596F81431C3F3420384F8DC
:101FD0002C30304617F070F8A881E080D9F80470F2
:101FE0000C98214612F0DAFEAB89FB801C233C687A
:101FF0003B71BAF1000F07D06B7F43F040036B7762
:10200000281D2EF092F9E88387F81CA02CF0D0FC54
:1020100010B33946204612F0C1FED8F84070404651
:102020003C6815F0A1FD10F0FF0A0CD0744A774906
:1020300075484FF4A67323F04EFF404080F311889B
:102040004FF0030002DF12233B710023A7F806A024
:102050003B72AA897A817B72394620462CF0E7FAD6
:10206000002108462EF0C6F9694C00F2FE4C82466B
:102070006848002731230721C6E90173ECFB0401FE
:102080005BA3D3E90023F760FEF73AF820F07F4026
:1020900030610D99D9F80C306D6A40F2E24202FBD2
:1020A00001330B99303B1944A1EB0A0A3A4602214D
:1020B000012011F087FBD8F84430ABEB0505B3B134
:1020C000D3F800B0584615F031FFC21C524BCDF882
:1020D00000B0D2B20121384612F0D6F9594619F0B3
:1020E000FFF89BF84E3067F300038BF84E30404604
:1020F00015F03AFD3EA3D3E900230746AAFB0401ED
:10210000FDF7FEFFD9F808304349009120F07F4ADF
:102110003F3BBA1C5344D2B20121CDF804800020C9
:1021200012F0ECF9414619F0DBF898F82430DB079F
:1021300006D50023012200931146184612F0A4F997
:10214000304616F0B9FFA5FB044529A3D3E90023C7
:10215000074629462046FDF7D3FFD9F80830A3F1FA
:102160003F0840F2D11308932C4BCDE906632C4B6A
:102170000593336904932B4B20F07F46A6FB033174
:102180000722E01A02FB061165EB01014FF000097E
:102190004FF47A720023CDF80C90FDF7B1FF0737AA
:1021A000FFB2CDE90160CDF800A043463A460121D7
:1021B00048462CF0C3F910F0FD0F0CD0104A1A4914
:1021C00011484FF4E97323F086FE404080F31188F4
:1021D0004FF0030002DF01220221104613B0BDE8D8
:1021E000F04F11F0EFBA0B938BE64FF0010ACAE6FD
:1021F0008D49FD1A0700000040420F00404B4C0083
:10220000D24D03004D450300FB3D0300184603007B
:1022100000CA9A3B8C49FD1AE1B20100B5B2010037
:1022200019B301008D49FD1AB849030000000000F0
:102230000328F8B50D4618D1002015F0DFFF04463D
:10224000A8B15F2211462DF039F8134F134E072124
:10225000E0FB07610EA3D3E900233046FDF750FFF2
:1022600020F07F4028602046F8BD072801D00024D8
:10227000F9E7002016F096FF04460028F7D090F901
:102280003930002BF3DB03692B60ECE7AFF3008000
:102290008D49FD1A0700000000CA9A3B8C49FD1ABF
:1022A0002DE9F04F8FB0DFF8D8800B900DF137019A
:1022B0000DF136002CF0C2F9324F9DF836A09DF892
:1022C00037B02CF06EF9D8F800400A90A4FB075400
:1022D00029A3D3E90023002621462846FDF710FF55
:1022E0000B9B0693CDE90766274B05938146D8F8EB
:1022F000040021A3D3E90023A0FB0701FDF700FFA1
:10230000224B29F07F47A7FB033120F07F400722B3
:10231000CDE9036002FB0711E81A64EB01014FF4F9
:102320007A720023FDF7ECFE0A9B0096CDE901705E
:102330005A46032150462CF001F910F0FD0416D145
:10234000134A1448002320F017FF68B19DF8372086
:102350009DF8360000942346032112F095F86FF0A3
:1023600073000FB0BDE8F08FD8F80C00F9E76FF0FC
:102370008B00F6E7AFF300808D49FD1A07000000DF
:10238000A840002000CA9A3B21B701008D49FD1AE0
:10239000447B0B009040002038B50F4D04462CF0D4
:1023A00000F9A9682CF0FFF86968B0FBF4F4044464
:1023B0000A4807A3D3E90023A1FB0001FDF7A0FE13
:1023C00020F07F40844294BF0020012038BD00BF30
:1023D0008D49FD1A07000000A840002000CA9A3B62
:1023E000F7B5C468636805465BB193F820309B0776
:1023F00007D0434821461CF01FF81CF0D3F80020FA
:1024000064E01CF039F800201CF05AF8A17A607AD8
:1024100001F00101C0F382001CF044F8627A25212A
:1024200002F01C0208201CF081F8364B019301A831
:102430001CF064F8344940F25B601CF0F5F8237A34
:10244000C3F3420262F30613237220461AF07AF8AD
:1024500027682E6838462DF0ADFF06446A6806F1FD
:102460000E0101201CF032FA1CF022FB204615F070
:1024700085FB811C3246C9B238462DF0A9FF0546BE
:1024800030B3224A2249234840F2144323F023FD6B
:1024900021480726A5FB000117A3D3E9002306FB6B
:1024A0000511FDF72DFE1D4902461D4823F013FDC1
:1024B000404080F311884FF0030002DF19482146A5
:1024C0001BF0BAFF1CF06EF86FF08B0003B0F0BD8C
:1024D00020462DF06AFF002891D00C4A12490D4881
:1024E00040F22C4323F0F7FC404080F311884FF07A
:1024F000030002DF83E700BF00CA9A3B0000000030
:10250000E1BE0100D6BE898E55555500FD4F030032
:10251000F7530300FB3D03008D49FD1A9F50030054
:102520006F50030061040300E94303000000000052
:102530002DE9F347C468002306460DF1030104F1B9
:10254000140067688DF8033019F0C4FF804658B94D
:102550007B4A7C497C488A2323F0BDFC404080F3C1
:1025600011884FF0030002DF3B7B07EB83031D69FB
:102570002B7803F00F03072B0BD0714A7349724875
:102580009F2323F0A8FC404080F311884FF0030004
:1025900002DFAB789A060BD1694A6D496A48AB23D2
:1025A00023F099FC404080F311884FF0030002DFD4
:1025B000EA78D3074CBF05F10A032B1D900748BFEB
:1025C0000633110748BF0233D2063CD59A785978B2
:1025D000120202F4F8520A4335D093F800A023897E
:1025E000013323811BF048FF00201BF069FF97F89F
:1025F0000990B97A4FEA591901F0010148461BF0D8
:1026000051FF4FEA89025F2108201BF08FFF514BD9
:10261000019301A81BF072FF0AF03F0A4E4940F2F5
:102620005B601CF001F8504619F0FCFB40461BF0C3
:10263000ADFFAB783F2B0ED8484821461BF0FCFE7F
:102640002EF097F924E0464821461BF0F5FE1BF0DA
:10265000A9FF00205AE00DF1030107F1180019F05D
:1026600039FF58B9364A3F493748F12323F033FC44
:10267000404080F311884FF0030002DF3A482146C2
:102680001BF0DAFE96201CF015F948461CF084F881
:102690002768356838462DF08DFE054405F10E019A
:1026A000726801201CF012F91CF002FA20462CF08E
:1026B000D6FDC11C2A46C9B238462DF089FE054612
:1026C00038B31F4A2949204840F2491323F003FC3C
:1026D00027480726A5FB000117A3D3E9002306FB23
:1026E0000511FDF70DFD23490246234823F0F3FBB6
:1026F000404080F311884FF0030002DF1748214665
:102700001BF09AFE1BF04EFF6FF08B0002B0BDE88D
:10271000F08720462DF049FE00289AD0084A174934
:1027200009484FF4AD7323F0D6FB404080F3118885
:102730004FF0030002DF8CE700CA9A3B0000000064
:10274000AA500300F8500300FB3D030000510300B2
:1027500026510300D6BE898E555555003DC901004E
:1027600049CA0100665003007DC90100F753030008
:102770008D49FD1A435103006F500300E9430300E4
:102780002DE9F041C46823796FF300038CB0237105
:102790000D4606461BF070FE00201BF091FE207CCB
:1027A000012100F007001BF07DFE227C920002F068
:1027B0001C02252108201BF0B9FE237C23F01803FE
:1027C0002374012012F03AFC074660B95A4A5B496B
:1027D0005B484FF4C57323F07EFB404080F31188C3
:1027E0004FF0030002DF07F11C001BF0C9FE554B40
:1027F0000B930BA81BF082FE534940F25B601BF069
:1028000013FF2079C0F34100253019F00BFB4F482E
:1028100021461BF011FE23799B064CD596201CF017
:1028200049F800231A46194618461BF0C9FFD4F888
:102830000080376840462DF0BDFD0744726807F1FF
:102840000E0100201CF042F81CF032F91BF0DAFFF8
:10285000204615F0BFFF411D3A46C9B240462DF053
:10286000B7FD064650B3344A3949354840F2E513BE
:1028700023F031FB37480725A6FB00012CA3D3E941
:10288000002305FB0611FDF73BFC334902463348A4
:1028900023F021FB404080F311884FF0030002DF5A
:1028A0002F4821461BF0C8FD1BF07CFE6FF08B000B
:1028B0000CB0BDE8F0812EF05CF8B8E71DBBE36911
:1028C0000BB340F2F3120892264ACDE90642264A9B
:1028D000CDE90035CDE90452CDE902553B4604224D
:1028E00029462BF02BFE10F0FD0F0CD0124A1F4989
:1028F00013484FF4FA7323F0EEFA404080F3118846
:102900004FF0030002DF20462DF04FFD08B90020F4
:10291000CEE7094A16490A4840F20B2323F0DBFAB6
:10292000404080F311884FF0030002DFEFE700BF63
:1029300000CA9A3B000000004E51030047500300BC
:10294000FB3D0300D6BE898E55555500C5D201000A
:10295000F75303008D49FD1AA25103006F50030085
:1029600031CE01006DD0010099D001002346030053
:10297000E9430300000000002DE9F341C4680DF1B4
:1029800003010546204616F081F923796FF386137B
:102990002371614B00261E801BF06EFD30461BF03C
:1029A0008FFD6079012100F007001BF07BFD62794B
:1029B000920002F01C02FF2108201BF0B7FD01204D
:1029C00012F03CFB064660B9544A554955484FF44D
:1029D000F17323F080FA404080F311884FF0030038
:1029E00002DF06F11C001BF0CBFD4F4B019301A849
:1029F0001BF084FD4D4940F25B601BF015FE207911
:102A000000F03F0019F00EFA214649481BF014FD72
:102A100096201BF04FFF627902F007020123104657
:102A200000211BF0CDFE27682E6838462DF0C2FC31
:102A300006446A6806F10E0100201BF047FF0546B8
:102A40006079D4F80880012100F007002DF08AFF9A
:102A50000544607900F007000228454442D004286C
:102A60000CBF4FF4BC73282301211D442DF07CFFC3
:102A700028441BF0E5FF1CF01BF81BF0C3FE2046AA
:102A800016F0FAF8811D3246C9B238462DF0A0FC86
:102A9000054648B3214A2749224840F2392323F00A
:102AA0001AFA25480726A5FB000119A3D3E900233C
:102AB00006FB0511FDF724FB20490246204823F0C0
:102AC0000AFA404080F311884FF0030002DF1D48EE
:102AD00021461BF0B1FC1BF065FD6FF08B0002B0CE
:102AE000BDE8F0811823BFE720462DF05EFC08B951
:102AF0000020F4E7094A14490A484FF4167323F0FA
:102B0000EAF9404080F311884FF0030002DFEFE75D
:102B100000CA9A3B0000000048510020B451030055
:102B200047500300FB3D0300D6BE898E5555550026
:102B30004B070300F75303008D49FD1A10520300A1
:102B40006F5003008DD50100E94303000000000031
:102B50002DE9F341C468A2894FF6FF739A420546F6
:102B600007D16F4821461BF067FC1BF01BFD0020BE
:102B7000AFE01BF08FF92B89628AE08A1A4492B287
:102B8000104480B2431CE38200236382637FA282ED
:102B9000590604F1180640F19F80E18B03F03F03D2
:102BA000324618F0F9FCD4E90B23A16A1344994288
:102BB00094BF21632363D4E90D1300220B44C4E9BD
:102BC0000D23E26294F8522012F0040206460AD164
:102BD000D4E90F012BF0F8F928B994F8523043F0FA
:102BE000040384F852301BF047FC00201BF068FC03
:102BF000201D1BF083FC2389A17A40F25B6043EA2D
:102C000001411BF011FD304619F00CF921464548F1
:102C10001BF012FC96201BF04DFE00231A461946AD
:102C200018461BF0CDFD20461BF08AF927682E6858
:102C300038462DF0BFFB06446A6806F10E010020FD
:102C40001BF044FE80461BF007FF00201BF01EFF18
:102C5000226BA36B0021084603EB42052DF082FE98
:102C6000883500214544054408462DF07DFE284462
:102C70001BF0E6FEA18907313246C9B238462DF075
:102C8000A7FB0546002831D0274A2849284840F2AA
:102C90004B1323F020F927480726A5FB00011EA3AC
:102CA000D3E9002306FB0511FDF72AFA2249024663
:102CB000224823F010F9404080F311884FF00300C0
:102CC00002DF1F4821461BF0B7FB1BF06BFC6FF0C7
:102CD0008B0002B0BDE8F08103F03F03A17F0093B9
:102CE00004F11F0033462DF0FEFA5CE720462DF07C
:102CF0005CFB00283FF43BAF0B4A12490C4840F202
:102D0000551323F0E8F8404080F311884FF003009A
:102D100002DF2CE7AFF3008000CA9A3B00000000FE
:102D2000E1BE010011E001007C520300F7530300F3
:102D3000FB3D03008D49FD1ACD5203006F50030087
:102D40002F040300E943030038B504460D46044848
:102D500022F0FDFC2046294622F07CFC002038BDF4
:102D60001839030030B58DB027F097FB04460028D2
:102D700034D0304C1022002108A82FF0F9F9D4F8F3
:102D800084301B88ADF82230D4F88C301B88ADF825
:102D90002430FF234FF400228DF82F3048F2012118
:102DA00003AB05A8CDE90623059328F0CFFA00234D
:102DB00008A9009305AA04F1780028F04CFA01460E
:102DC00010B11D4822F0C3FCBDF824101B4822F0AE
:102DD000BEFC1B4B01221A700DB030BD194B1A48B6
:102DE0001D88C5F30E05294622F0B1FC174B184883
:102DF000CDE9005321462346224608F071F80146EA
:102E000028B114480DB0BDE8304022F0A0BC124AF1
:102E100027F05AFE014608B11048F3E7054BDA6D7A
:102E20001080D3F8843018800D480DB0BDE83040D4
:102E300022F08DBCE0030020283903005339030041
:102E4000AD5100207D510020723903005C510020FB
:102E50006C510020993903004C510020B83903000F
:102E6000D6390300F8B5104C6368C3B1012000F0F7
:102E70007FFB002567684FF4004640F2E7302946A3
:102E80004FF47A720023E7FB0601FDF739F9024699
:102E90000B4604F1080020F083FB6560F8BD207844
:102EA000BDE8F84000F064BBD014002008B501462E
:102EB00020B10D48BDE8084022F049BC0B4822F083
:102EC00046FC0B490B4807F09FFF014608B10A4832
:102ED000F0E723F0EBFB03200EF07AFFBDE808409B
:102EE000064822F034BC00BFF3390300133A030054
:102EF0007C2C0300282C03002A3A03004D3A0300DF
:102F00001E4B2DE9F3411C68A3685B6C1BBBA368D7
:102F10005B6B3BBB1A4D1B4EDFF86C80A3689B6953
:102F2000EBB101220DF1070120469847012816D187
:102F30009DF807200A2A01D00D2A18D12B68002BF2
:102F400015DD0027F7540F490022002340461FF0EB
:102F500053FF2F60E2E7204698470028D7D102B000
:102F6000BDE8F081204698470028D3D1F7E72B68C9
:102F70001E2B9EBF591CF2542960CFE7042D03007D
:102F8000582300208D510020B81100202DE9F04178
:102F9000104615468CB02DF0A2FEAF883E4E04467A
:102FA000FFB128462DF09BFE074628462DF097FEE0
:102FB00000F03F033F2B18BF384AC0F387110CBF06
:102FC0004FF0FF3352F82120354856F8241018BF2F
:102FD000534356F8272022F0BAFB00200CB0BDE87E
:102FE000F081DFF8C08056F820102F482F4D22F0D6
:102FF000AEFB003C98F8003018BF01242C70002B69
:10300000EBD02B482B4C22F0A2FB1022394608A80B
:103010002D782FF0ADF8D4F88430D4F88C201B88AC
:10302000ADF822301288ADF82420FF228DF82F2031
:103030004FF6FF72934285F0010506D11E4822F03B
:1030400086FB002388F80030C7E703AB4FF400226B
:1030500005A848F20321CDE90623059328F076F967
:10306000294605A82DF0CAFD144B197805A84A1C5D
:103070001A702DF0C3FDD4F8803056F825109A88C8
:103080000F4822F064FB00973B4605AA08A904F10B
:10309000780028F0E0F8D4E7E42C0300D42C0300F7
:1030A0005F3A0300AD510020803A0300D0140020A5
:1030B000923A0300E0030020A23A03007C51002072
:1030C000E33A03002DE9F041DFF8C08088B00546FF
:1030D0002F480E4622F03BFB02AB4FF4102248F281
:1030E000042105A8CDE90623059328F02FF94046D1
:1030F0002EF068FE4FF47A77A0FB070307FB01313F
:1031000058F8144CC30B43EA4143E41818F8181C50
:1031100022D081F0010105A82DF070FD18F8181CCF
:1031200005A82DF06BFD631C2ED041F69B039C423D
:1031300021D94FF217639C4220D9164B9C421FD9CC
:10314000154B9C4220D8154F0322013C3C44B4FB54
:10315000F7F444EA8214E1B2002405A82DF04EFDF4
:103160000094234605AA3146284628F074F82046E4
:1031700008B0BDE8F08100226427E6E70122E4E719
:10318000022242F21077E0E73F21E5E7E814002051
:10319000093B0300EF9C09003FC84002C02709001B
:1031A000F0B5044689B010460D462DF098FD184F35
:1031B0000646184822F0CBFA3B684BB9164800F097
:1031C000C3F901233B6009B0BDE8F0402EF059B9C6
:1031D000012B04D1114800F0B7F90023F2E703AB4B
:1031E0004FF4E02205A848F20421CDE90623059317
:1031F00028F0ACF8314605A82DF000FD002300931F
:1032000005AA2946204628F026F809B0F0BD00BFDF
:103210005C230020183B030006400300114003001C
:103220002DE9F843104615460F462DF058FD064689
:1032300028462DF054FDAC888046002C47D0284607
:103240002DF04DFD00F03F033F2B18BF214AC0F386
:103250008711284616BF52F821204FF0FF3902FB94
:1032600003F92DF03CFD04B204EB84041A4D6B7895
:10327000434503D1BA886B889A4225D02B78B34254
:1032800022D01649164851F826104B46224622F005
:103290005EFA003EBB886B8018BF012685F801806E
:1032A0002E70C5F8049040F2E7304FF4004500213D
:1032B0004FF47A720023C4FB0501FCF721FF02469C
:1032C0000B46084820F06CF90020BDE8F883A146C1
:1032D000CCE700BFD42C0300D0140020E42C030062
:1032E000263B0300D814002010B51B4C8CB01022D4
:1032F000002108A82EF03CFFD4F884301B88ADF8DC
:103300002230D4F88C301B88ADF82430FF234FF4E2
:1033100000228DF82F3048F2012103AB05A8CDE93A
:103320000623059328F012F8002308A9009305AAA4
:1033300004F1780027F08FFF014610B1074822F012
:1033400006FABDF82410064822F001FA054B0122C6
:103350001A700CB010BD00BFE00300202839030034
:1033600053390300AD51002070B5344888B022F0C5
:10337000EEF9334C102120462DF0D5FE0028BEBFBB
:10338000DD23237063702F4B1C6820462EF01CF940
:1033900028B92D4822F0DBF9002008B070BDA368E1
:1033A000ABB19B6C9BB12949002220469847A3688A
:1033B0009B6A73B9264927482EF025FB254800F063
:1033C00067F8014640B1244822F0C1F9E4E72348F8
:1033D000E0E720469847EDE7214922482EF057FBC9
:1033E000214803F05BFD014610B1204822F0AFF9FF
:1033F0001F482EF0E9F80028CED01E4C1E4D1F4E5F
:103400004FF0FF324FF0FF33694620461FF04AFD70
:103410000028C1D16946284622F099F9314668460C
:10342000FCF7D8FF08B9FFF75FFF15496846FCF7BE
:10343000D1FF0028E4D1FFF757FFE1E7483B030045
:103440007D510020042D0300593B0300012F000093
:10345000652D000000230020A33B0300703B030008
:10346000652E0000D8140020AD2E0000F3390300B3
:1034700040250300B8110020C03B03002146030093
:1034800001400300014B18681FF0EEBF6C230020C1
:103490002DE9F0410746254C20462EF095F80028EE
:1034A0003ED02269A168136843F4805313600B680F
:1034B0001F4A20460C219847044670BB1D4D1E4AEA
:1034C000D5F81080AE68D8F8003043F04003C8F853
:1034D000003033680621284698470446E8B9B469A5
:1034E0000CB3D8F8003013F0400F14BF4FF0007346
:1034F0004FF080634FF0A07206212846A047044693
:1035000058B90E4B0E491F600E4B4B6040238B6029
:10351000F36913B10122284698472046BDE8F0819F
:103520006FF01204F9E76FF05704F6E74025030047
:1035300001000A002C250300110001006C2300206B
:103540006023002085340000F8B50646FCF754FFE0
:10355000064F05460024AC4200DBF8BD315DBB6878
:1035600002485B6898470134F5E700BF7C250300FB
:1035700008B530B10448FFF7E7FFBDE808402DF07B
:1035800080BF0248F7E700BF064003001140030078
:1035900010B5094C0A44914200D110BD11F8013B0D
:1035A000584003090001E35CC0B2434018091B0105
:1035B000205CDBB25840EEE7D23B0300014B1B68B6
:1035C000184700BFB0040020014B1860704700BFCF
:1035D000B004002030B585B004460D46102200210D
:1035E00068462EF0C5FD02238DF802302A46044BB2
:1035F00001932146684620F0C9FE05B030BD00BFEA
:10360000BD35000080B505460E461746984620F0A9
:10361000E1FA03462EF01EFFDFF81890044649F841
:103620000030424630463946A84754F8090002F0B7
:103630003BF900BF080000002DE9F047058B044668
:103640002807904611D4022905F0070540F0CD80E7
:10365000204622F06FFA78B10138218B042811D866
:10366000DFE800F0C3106D85950001290CBF45F01F
:10367000100545F02005258388F31188BFF36F8F6F
:10368000BDE8F08701F0070AAA4500F0A6800027F0
:10369000B9463E46A368002B00F0BD8041F008010A
:1036A000218388F31188BFF36F8FA168002900F090
:1036B000BB800D68002900F0B780D1F80480334644
:1036C00052462046C047002D76D02B6829461D461D
:1036D000F0E701F007035A1F012A1BD8002221F04E
:1036E0000701062B276889B2C4E9002209D13B46AD
:1036F00003E0628B013262831B68002BF9D141F039
:1037000002012183204622F015FA00287BD041F0E7
:10371000200177E0042B0AD121F0070189B221832F
:10372000204622F007FA10B141F020012183218BBD
:1037300001F0070AAA4550D00027B946AAE7236935
:1037400021F0070141F00601062DD3F800902183F6
:103750002DD1B9F1000F40D041F00801218388F349
:103760001188BFF36F8F3A492046C84729E021F0FE
:103770000701236941F0040189B2042DD3F80490B4
:103780002183E6D000273E464FF0040A82E721F06D
:103790000701236941F0050189B2052DD3F808908E
:1037A0002183D6D000273E464FF0050A72E7002756
:1037B0003E464FF0060A6DE72B4687E7B9F1000F4A
:1037C000D1D14FF02003EFF3118883F31288BFF3B8
:1037D0006F8F238B23F008032383258BEA062ED5D6
:1037E00025F01003238305F007056669218B002E61
:1037F000BFF66FAF00232768C4E9003321F007014B
:1038000041F001012183218B01F0070AAA454FF005
:1038100000097FF43FAF002F9BD041F008012183C6
:1038200088F31188BFF36F8F002FC7D03D683946EA
:1038300033465246204622F0A9F92F46F4E7AB065C
:103840007FF51AAF25F02003238305F00705FFE677
:10385000B95B02001EF084B92DE9F7430F46064616
:103860000821C06ADFF8509022F0D0FB3C68241A8F
:1038700080463C6004EA0905AC4203D8002003B04E
:10388000BDE8F08308236A462146304622F031FB2A
:103890000028F4D16946304622F0C2FB40B1BDF8A1
:1038A0000230BDF804203C6005EA090513441D44BC
:1038B000A4EB0804E0E700BF0000FFFF2DE9F0479C
:1038C000044688B000F1140738462DF05BFFA06A6B
:1038D0008368DB689847E06228B96FF015052846D1
:1038E00008B0BDE8F087A06A8368DB689847036882
:1038F000013B1F2BF1D8A06A216805AA2DF08EFB91
:103900000028EAD1A589002DE7D0069BB5FBF3F28C
:1039100003FB1255002DE0D1E389012BDDD9E36AC9
:10392000009593F804904FF0FF334FF0FF32384684
:103930001FF012FBE06A082122F068FBA846064649
:10394000E3891FFA85FA534508D8E389434523D113
:1039500038461FF07BFB6FF02C05C0E7A1892B04D4
:10396000891B13FA81F14A4608232046009122F070
:103970000EFB78B16946204622F0C9FA08F1010829
:10398000009908234A4620461FFA88F822F0FFFAD9
:103990000028DAD00135D3E753450BD1009908232D
:1039A0004A46891B204622F0F2FA18B96946204699
:1039B00022F0ADFA69462046FFF74EFF054618B1E2
:1039C00038461FF043FB8AE7009B63604FEA1348C9
:1039D0004FEA0848C4F80880D4E9011399420FD38C
:1039E000082301AA204622F084FA05460028E7D1E0
:1039F00001AB13F8012B914533D10135082DF8D1D6
:103A000063681B0C1B0469462046009322F07FFA72
:103A1000A38900994A46204622F0B9FA051ECFDB59
:103A2000636876D006EB03084FF6FF79A389CDF8DB
:103A300000801FFA88F29B1B9A422ED300236168F4
:103A4000002B43D0090C090400912046694622F05E
:103A50005EFA0099204622F0BFFA0546002D74D088
:103A6000AEE701A9204622F0DBFA626810B9921B8A
:103A70006260B1E7BDF80850BDF80610E06AC4F80E
:103A80000880294422F0C2FA40449042A060EED15E
:103A9000002DECD06FF01C0568E0082303AA414616
:103AA000204622F026FA0546002889D103A920469F
:103AB00022F0B6FA30B1BDF80C304B4502D1BDF85A
:103AC00010300BB1B044B1E70123B8E7204622F033
:103AD00083FA054600287FF473AF6368264AA189FC
:103AE00013400B44A3EB460363601340A3602046DE
:103AF00022F07AFBB1E75B1A4A46204622F047FAE9
:103B0000051EFFF65DAF08D0E26AA3681268134491
:103B1000A360D4E901318B42EDD86168A38901EB40
:103B200046029A429AD1DFF85080A26801EA08035F
:103B30009A4293D0204622F04FFA054600287FF49F
:103B40003FAF636803EA0803A360A389A288A3EBDD
:103B500046039A4206D038461FF078FA01232374B0
:103B60000025BCE6204622F028FB054638461FF01B
:103B70006DFA002DF2D0B2E60000FFFF2DE9F04F04
:103B80001D46037C89B0044689469046002B00F010
:103B9000BF80C26A0821104622F038FA29468246C0
:103BA000104622F033FAA389A3EB8A039D4207460D
:103BB00000F2B1801DB1B8F1000F00F0AC80636875
:103BC000039304AA03A92046DDF80CB022F060FAA2
:103BD0000646002865D1BDF810304B4505D0626817
:103BE000039B9A42EDD1E5B95BE004A9204622F09F
:103BF00017FA0028F3D0BDF81200BDF8143075B1E3
:103C00009D420ED14FEA1B41090401442B46424616
:103C1000204622F089F9002803DC064641E0002B0B
:103C20003FD0002F41D104F1140301934FF0FF3234
:103C30004FF0FF3304F114001FF08EF9DFF8DCB011
:103C4000E3899E4261D0D4E90123F9188A422FD337
:103C5000ADF81A3006A8FF238DF81E30ADF8189085
:103C6000ADF81C5022F08AF9A1682B464246204646
:103C700022F058FA29468246E06A22F0C7F9A26883
:103C80000244A260BAF1000F07D106A9204622F033
:103C900083FA002814BF8246AA4601981FF0D6F97D
:103CA0005646304609B0BDE8F08F5744BFB2BAE778
:103CB000E06A082122F0AAF94FF6FF73ADF8183038
:103CC00000218DF81E30A389ADF81C10111802EAEE
:103CD0000B021A44101A606006A8ADF81A1022F000
:103CE0004DF906A9204622F057FA211D204622F060
:103CF0000EF9636803EA0B03A360204622F074FA0E
:103D000082460028C9D101369AE76FF01B0AC4E742
:103D10006FF00C06C5E76FF01506C2E70000FFFF65
:103D2000014B036000207047082D030070B5114B54
:103D30001C680D46DCB1104B196800238B4202DB76
:103D40006FF0010070BD224612F8106B864202D05F
:103D500001331446F2E7E06810B96FF01200F1E7A2
:103D60002DF032FC0028F8D02C600020EAE76FF03C
:103D70000C00E7E7B4040020082D030070B588B0FC
:103D800005460C46C0B269461646FFF7CFFF00282D
:103D90001BDB0098C8B143680293836822680195D1
:103DA000CDE903360023CDE906230593C56822F04B
:103DB00053FB6DB12846084901AA2DF033F9079845
:103DC00008B9059B236008B070BD6FF01500FAE7D5
:103DD0006FF01200F7E700BF5B640200F0B40C4B19
:103DE0000C4E5F6A0C4BB34203D36FF08500F0BCFE
:103DF00070475D68BD4209D31C693CB195F802C0AB
:103E00000579AC4502D12346F0BC18472433EAE7D4
:103E100070230020CC140020A81400202DE9F047C6
:103E2000134CDFF85080DFF8509005460E461746D9
:103E3000444503D36FF08500BDE8F0876268D9F888
:103E400024309A4212D3A36983B1907829798842A9
:103E500005D13A4631462846BDE8F0471847527921
:103E6000012A03D13A463146284698472434DFE7F1
:103E7000A8140020CC140020702300202DE9F0416C
:103E80000B4CDFF8308005460E461746444502D3FA
:103E90006FF0850009E063690BB92434F6E73A4610
:103EA0003146284698470028F7D1BDE8F08100BF89
:103EB000A8140020CC14002010B504462CF06AFF92
:103EC00010F1780F00D050B9054A204622F0E7FAE9
:103ED000D2F8C43023EA0003C2F8C430002010BD79
:103EE00070230020024B00221A605A60704700BF06
:103EF0002B24002070B50B4B0B4CA34201D30020A8
:103F000070BD196A1E7F00220439D5B2AE4201D8B5
:103F10002433F2E7013211F832508542F5D1012005
:103F2000EEE700BFA8140020CC14002008B5094813
:103F30000378C3F341130A3350F823303BB100F147
:103F4000080200F110019847C043C00F08BD184691
:103F5000FCE700BF7023002004282DE9F14FDFF8B3
:103F6000989004460F4616D001282DD1DFF88C809A
:103F700098F8B93043B300F0DFFD214D4D4520D214
:103F8000D5F820B04FF0000A2B7F5FFA8AF6B342D3
:103F900004D82435F2E7FFF7A5FFE7E70BEBC606E9
:103FA0000AF1010A30792CF0F5FE0246307922F050
:103FB00076FAD8F8C430002A23EA0003C8F8C430DF
:103FC000E2DA002388F8B9300D4D4D4508D30B4B8C
:103FD0001B6A6BB13946204601B0BDE8F04F184767
:103FE000EB681BB13A462146284698472435ECE752
:103FF00001B0BDE8F08F00BFCC140020702300207A
:10400000A814002073B5C4B263060D468DF80740AE
:1040100007D02046FFF76EFF78B10D4B93F8BA003A
:1040200058B10B4E204655B11BF002FBF3691BB192
:104030000DF1070108209847012002B070BD1BF068
:104040001FFBF369002BF7D00DF107010920F2E700
:104050007023002073B586788DF80060037942796B
:104060001C4C43EA0223ADF80230C378304603F01B
:1040700003038DF8043022F012FAD4F8C430184249
:1040800005460BD0304600F039FD3046FFF714FFEF
:104090002DF059FB10B996201FF082FD68461BF0E9
:1040A000A3FA10F1780F03D010B1002002B070BD58
:1040B0009DF800001BF020FB10F1780F01D00028C4
:1040C000F3D1D4F8C43001202B4384F8B900C4F8EC
:1040D000C430EBE7702300202DE9F047924DAB6927
:1040E00004460E461746C3B9207800F01F00012889
:1040F00076D0022800F0DC8000BB94F900103A680A
:10410000637800292EDA062B0CD0082B25D0ABB90A
:10411000537001231370022303E198470028E3D171
:1041200000200DE06388190A0A1F012A8C4605D970
:10413000072903D8DAB26B6A1C781CB96FF0150036
:10414000BDE8F0875D78654503D1824200F0E480E8
:1041500001302344F0E71B78E3E095F8BA301370A0
:104160000123DEE0052B11D0092BE7D163886E6AAD
:10417000002B32D1FFF7B6FE638885F8BA30EB69C1
:10418000002BCDD0694903209847C9E7A0781BF0E0
:1041900019FA0028C4D0D1E77378042B10D0052B6E
:1041A00011D0022B04D177796388BB4208BF01206C
:1041B00033781E443378002BEED10028BED0D9E7E7
:1041C00096F80380F4E76388BB42F1D1B8F1000FA1
:1041D000EED13046FFF73EFFEAE7FF27B846E9E7B2
:1041E00095F8BA30D7F800C0002BA7D06F6AA28824
:1041F00094F804E03B46187800289FD059780229AB
:1042000004D193F80480F04500F292800344F2E771
:104210008CF800308CF80130316081E71F4493E066
:104220000B2B8BD100264FF0FF08C146B24606E0AB
:104230007B78042B0FD0052B21D03B781F443B7893
:10424000002BF5D1EB6913B1514607209847002E9A
:104250007FF466AF72E797F80280A38897F803901F
:104260009845EAD163889945E7D1B8F1070F1CD882
:1042700005EB0803BA4683F8BB900126DDE7A38867
:104280004345DAD1A3784B450AD0BE78304600F0DA
:1042900035FC3046FFF710FEB0FA80F67609CCE721
:1042A0003846FFF7D7FE0646C7E7BA460026C4E7FA
:1042B00094F900206378002A18DA002B7FF43EAFCF
:1042C00024793F6863060AD02046FFF713FE0028D2
:1042D0003FF434AF95F8BA30002B3FF42FAF394696
:1042E00020461BF0EDF900237B7014E7012B08D06A
:1042F000032B7FF423AF6388002B7FF41FAF0121D2
:1043000003E0618800297FF419AFA088FFF77AFEE7
:1043100000287FF405AF11E702293B607FF41BAF53
:104320005B883360FCE600BF702300202A24002055
:1043300094F9000063780028BFF672AF002B3FF4B9
:1043400067AF0A2B7FF4FAAE3B78002B3FF4F6AE52
:10435000797804297FF462AFB9788A427FF45EAF3E
:10436000072A96BF5219002392F8BB308CF8003010
:10437000F6E600BF13B5164C237DF3B9E268A168D9
:10438000019201AB802022F098F8019AA3681344AF
:10439000A360E3689B1AE3606BB962B12369E288AA
:1043A0009A4208DD94F8C82093FBF2F102FB113326
:1043B0000BB90123237502B010BD00231A4619461C
:1043C0008020237502B0BDE810401BF0BFB900BFCC
:1043D0007023002030B585B0002302460D460193BE
:1043E000002858D1002935D108220B460DEB0201D7
:1043F0002CF0E9FC002804DA80201BF019F905B044
:1044000030BD2A4C029A2260039A626004F138029D
:10441000A2609DF90820BDF80E302575002AC4E978
:1044200003550ADB802B04D980201BF001F9002002
:10443000E3E713B1C4E90333E1E7FFF777FD0028B1
:10444000DAD0E28823699A42D4BFE260E360FFF7E2
:1044500091FFD4E7154CD4E90215002D01AB04DC23
:104460002CF0B1FC0028CADAC6E72A462CF0ABFCD7
:104470000028D9DB019AA3681344A360E3689B1A60
:10448000E360002BBBD104F13803A360FFF74EFDBE
:104490000028DCD1B0E78028B1D1044BDA68002ACB
:1044A000D5D11B7D002BD2D1A9E700BF70230020FE
:1044B000054B064A9A62064ADA62064A1A63064AB7
:1044C00058629A610020704770230020D940000094
:1044D000DD3D00007D3E00001D3E00002DE9F34162
:1044E000414D04466F6A41484FF0FF324FF0FF33B1
:1044F0001EF032FD95F8B860002E6ED13C482C625B
:10450000E8611BF03DFA1BF02BF8041E49DB00F0BC
:1045100037FB041E45DB7B78012B61D1FB79002B37
:104520005ED0684685F8C830ADF802308DF804607A
:104530008DF800601BF058F8041E32DB80276846B7
:104540008DF800701BF050F8041E2ADB2949304614
:104550001BF002FA041E24DB264938461BF0FCF946
:10456000041E1EDB244CDFF89480444520D3002039
:104570001BF0C2F8041E14DBD5F8C430802043F0D1
:104580000103C5F8C4301BF0B7F8041E09DBD5F8E9
:10459000C43043F48033C5F8C430012385F8B83003
:1045A000002412481EF052FD204602B0BDE8F08102
:1045B000276A0026227FF3B29A4201D82434D4E736
:1045C00007EBC30257F8331010791BF0C5F9013619
:1045D0000028EFD04FF0FF34E3E76FF07704E0E717
:1045E0006FF01504DDE700BF70230020A411002048
:1045F000593F0000D5430000A8140020CC1400202F
:1046000010B50A4B93F8B8404CB900F055F848B1D2
:10461000FFF74EFF2046BDE81040FFF75FBF6FF089
:10462000770010BD4FF0FF30FBE700BF7023002084
:1046300030B51F4B8BB005AA03F1100518685968F7
:10464000144603C40833AB422246F7D11B782370CB
:104650001022002101A82DF08BFD12220021154807
:104660002DF086FD102101A82CF05DFD00281BDD3A
:104670000828B8BF0820093801AB0E491A180020D5
:1046800012F8013F0AAC04EB131403F00F032833B4
:104690006B44013014F8144C13F8143C0C700828C7
:1046A0004B7001F10201EBD102480BB030BD00BFED
:1046B000E23B0300AE5100202DE9F04F704C87B073
:1046C0004FF0000B00264FF0011AB0463546B146B8
:1046D00023782BB96B4B02349C42F3D1684833E00A
:1046E0006378052B1BD8DFE803F09003C8901D3BCF
:1046F000402304A88DF810B0ADF812308DF814B036
:104700002CF033FB40B1082304A8ADF812302CF094
:104710002CFB08B1ADF812B0BDF81230E37123786C
:104720001C44D5E7E378002BF9D1A3787BB108F1DD
:1047300001085FFA88F8F2E76B689C4209D02435DB
:10474000514B9D42F8D3002007B0BDE8F08F4F4D8C
:10475000F6E7AB68002BEAD0414620469847E6E7EB
:10476000002DF0D000222B7F9A42ECD2296AA0784B
:1047700001EBC2010B79984201D00132F3E7012726
:10478000E07800F003008DF81400207994F805C05B
:1047900040EA0C20ADF8120094F902000028FBB2A8
:1047A00028DA07F110004FF0010C0CFA00F010EAC3
:1047B0000A0F26D143F080008DF8100004A8CDE93F
:1047C000021301922CF0D1FADDE90121039BC0B95B
:1047D0009DF81020A27012F0800F18BF10330A71DC
:1047E00018BFDBB24FF0010214BF9A40BA404AEA48
:1047F000020A94E70120B84010EA0A0F01D11846D6
:10480000DAE70137102FBBD1B7E7032E1DD1FFF731
:104810000FFF074668B1FBF7EFFD102809D13846B6
:10482000A31C07F1100250F8041B43F8041B90422C
:10483000F9D123786FF00201E218091B04EB53034E
:10484000D14213D50136F6B269E7002EF1D1B9F1A4
:10485000000F3FF478AFA4EB090389F80230C3F3EB
:10486000072389F8033089F80480EBE702F801BCDC
:1048700013F8010902F8020DE2E7A1464FE700BF75
:1048800004140020A7140020CC140020A814002039
:1048900010B5094B00211A461C78844205D15C688A
:1048A0001CB1482303FB012010BD0131042903F191
:1048B0004803F1D10020F7E73C2400202DE9F34123
:1048C00050F8303C10F8346C103304460AD10369B8
:1048D00050F8282C980736D5D2B9590715D500239A
:1048E00044F8303C54F8303C10330BD054E909758F
:1048F00054F81C8C2CF027FF00284FD02E4821465E
:104900002DF0AEF802B0BDE8F08143F0040323615E
:1049100054F82C1C01AB304621F0CFFD10B16FF0E4
:104920001503DDE7019A54F82C3C134444F82C3C61
:1049300054F8283C9B1A44F8283C54F8243C13446F
:1049400044F8243CCEE754F82C1C01AB30461AF056
:1049500079FF0028E3D1019D54F82C3C2B4444F806
:104960002C3C54F8283C5B1B44F8283C54F8243C6D
:104970002B4444F8243C002DB1D030461BF006F8FF
:10498000B5FBF0F303FB1055002DA8D154F8283CDB
:10499000002BA4D030461AF09DFFA3E744F8200C6A
:1049A000A4F118001EF0C2FB002DABD042463946E0
:1049B0003046A847A6E700BF081500204B1E012B74
:1049C00073B506460D460FD8FFF762FF044668B977
:1049D000012D09D101AB01220DF1030130461AF07E
:1049E00031FF019B002BF5D102B070BD2CF0ABFE66
:1049F00004F1340108B1012D05D1084602B0BDE82B
:104A00007040FFF75BBF034802B0BDE870402DF077
:104A100027B800BF081500202DE9F74F8046009108
:104A20001746994621F091FD044600285DD14FF0CC
:104A30002003EFF3118B83F31288BFF36F8F2C49A0
:104A400000220846002301911EF096FB019968B9E7
:104A5000DFF8A0A0482262430AEB02056E6816F157
:104A6000100F12D108461EF061FB06E00134042C41
:104A700001F14801E4D16FF00B068BF31188BFF30D
:104A80006F8F304603B0BDE8F08F0AF802800C9AB1
:104A9000009B6A610D9A2861AA6140466FF00F027F
:104AA000C5E90237C5F844906A601AF06FFF58B143
:104AB00040461AF06BFFB7FBF0F202FB10771FB114
:104AC0006A6C42F004026A6419F0020F08D04822AE
:104AD00002FB04A1084834312CF0C2FF0026CCE7C9
:104AE00040461AF0F7FE0646C7E76FF00F06C8E724
:104AF000582400203C2400200815002010B54FF059
:104B00002003EFF3118483F31288BFF36F8FFFF755
:104B1000BFFE50B14368103307D16FF08B03436081
:104B200000F1340103482CF09BFF84F31188BFF39C
:104B30006F8F10BD0815002070B50F4C04254FF085
:104B40002003EFF3118683F31288BFF36F8F63683E
:104B5000103307D16FF08B030848636004F1340110
:104B60002CF07EFF86F31188BFF36F8F013D04F1B7
:104B70004804E4D170BD00BF3C240020081500208B
:104B800070B50A4C0A4E0025314620462CF03BFFFA
:104B90000122A4F11800114601352CF0B1FE042DBC
:104BA00004F14804F0D1002070BD00BF7024002043
:104BB000BD48000008B50146034821F0B0FC10B123
:104BC000012300F8073C08BD5C2500200169012392
:104BD00081F84B300B6833B191F849301BB1024872
:104BE00008312CF03DBF70470815002001690123F2
:104BF00081F84A300B6833B191F848301BB1024854
:104C000008312CF02DBF70470815002070B5012326
:104C100082F8483013680D4614463BB192F84A308A
:104C200023B10E4802F108012CF01AFFD4F890309D
:104C30009A681B699A4205D17DB904F1180140F6C2
:104C4000CD4204E004F11801002DF8D00022BDE8A7
:104C50007040024800231EF045BC70BD08150020BE
:104C600038B5056995F89E0088B195F89F307BB9F5
:104C700085F84830D5F8900021F0B9F800220446B4
:104C80000023044805F118011EF02CFC204638BD15
:104C90000020FCE708150020F0B5D0F88C305B68E8
:104CA0001B6A1F7D85B00446384621F04EFC06463F
:104CB000F8B994F88630E3B1A06F4FF4806203A98D
:104CC00021F0B4F80546A0B18306A4F1180308BF8B
:104CD00000F1FF3584F830600193074B039900938E
:104CE0002A4602233846FFF797FEA06F294621F097
:104CF000BDF805B0F0BD00BF0D4C000070B5044616
:104D00000E4601791548154621F0FBFB10B394F9C6
:104D100000206378002A16DB202B04D0222B0ED033
:104D20006FF085000AE02B681A6840F8102C9A880A
:104D300020F80C2C9B7900F80A3C002070BD638899
:104D400000F8093CF9E7212BEAD110380723286045
:104D50003360F2E76FF01200F0E700BF5C2500203F
:104D60000D4A03460021A0F848101068C3F89400CB
:104D700090889279A3F8980083F89A2083F89C1081
:104D800083F89B10A3F89E1083F8A010402203F133
:104D90004C002DF0EDB900BF6429030010B5046983
:104DA0000023C4F8A8300C4BC4F8A400596804F1DF
:104DB000A80269B9C3E9002204F1080007492CF0F0
:104DC00022FE04F1180006492CF061FE002010BDFF
:104DD0000A605A60F0E700BF5C250020756502009C
:104DE000994C000013B504698DF80710002384F86E
:104DF0004830D4F8900001220DF1070120F0F7FFB0
:104E000010B92CF0A0FC40B12122002304F11801BC
:104E100006481EF067FB02B010BD94F8A130002BCD
:104E2000F2D0002121201EF0A1FEE2E708150020AB
:104E300037B514460A1E054620DDD4F88C0004F16F
:104E40004C0120F0D4FF012384F8493023683BB1A2
:104E500094F84B3023B1114804F108012CF000FE06
:104E6000D4F88C104B684A699A1ACB699B1A3F2B6D
:104E700004D8012384F8A03003B030BD94F89E30EC
:104E8000002BF9D0064B009301940123402204F13A
:104E90004C012846FFF7C0FDEEE700BF08150020D3
:104EA000314E0000F7B50D4601461D4821F01DFBAF
:104EB000044610B30646691E56F8A4395F680529F2
:104EC0001BD8DFE801F01C1A031C222610F8061C70
:104ED00099B9012300F8063C3B6A3246187BFFF77C
:104EE000A7FF14F85C2C42B93B6A187D0D4B009368
:104EF000019602231146FFF78FFD03B0F0BD304647
:104F000003B0BDE8F040FFF72BBF012304F8053CD8
:104F1000F3E710F8053C002BEFD00023F6E700BFC5
:104F20005C2500200D4C000037B5094D09490024CF
:104F300000944FF0FF334FF4806228461EF09AFA37
:104F4000054928462CF005FC204603B030BD00BFC3
:104F50000815002080530020003C03002DE9F0419B
:104F60000F4B1C6805460E461746ACB14FF0FF329A
:104F70004FF0FF330B481DF0EFFF63683246D3F864
:104F8000088029463B462046C047044605481EF097
:104F90005DF82046BDE8F0816FF00104F9E700BF3D
:104FA000642500209011002000230360044B5A6800
:104FB00012B9C3E90000704710605860704700BF25
:104FC00068250020014B1860704700BF6425002051
:104FD00030B585B000230546CDE9023301904FF08E
:104FE000FF330C484FF0FF321DF0B6FF0A4B1C6830
:104FF0004CB9284600F08EF8044606481EF026F804
:10500000204605B030BD636820461B6801A998475B
:105010002468EDE790110020682500201FB5CDE938
:10502000010103924FF0FF330A484FF0FF321DF0A9
:1050300093FF094B1C682CB906481EF007F8204660
:1050400004B010BD636820461B6801A99847246816
:10505000F1E700BF9011002068250020024B0022DC
:10506000C3E90022704700BF68250020024B0022E0
:10507000C3E90022FFF7F2BF702500202DE9F743B6
:1050800007460C4609B100230B601F4DDFF87C90EA
:1050900000264D450FD31E4B1D6885B355F8148C63
:1050A00001AA41463846143D21F007FB10B3D6B99A
:1050B00014BB2E461EE0D5F8008001AA41463846B2
:1050C00021F0FBFA50B116B954B92E4606E031680A
:1050D0000022404621F0F1FA0028F5D11435D8E736
:1050E000019B2360F1E731680022404621F0E5FA98
:1050F0000028DDD16D69D0E7019B2360D9E73046F8
:1051000003B0BDE8F08300BFA82703001029030007
:1051100070250020F8B5184C184F06460025BC42F3
:1051200008D3174B1C682CB3143CB6B9E368E3B939
:105130006469F8E72EB9E3685BB92846143405467C
:10514000EDE720680022314621F0B7FA0028F2D1BD
:10515000F3E79847002DF0D1F0E7206800223146B0
:1051600021F0ABFA0028E1D1E2E79847002D08BF13
:105170000546DDE72846F8BDA827030010290300EF
:105180007025002038B50C4D0C484FF0FF334FF020
:10519000FF321DF0E1FE2B783BB9FFF767FF00F00F
:1051A0006DF8044610B901232B70002403481DF04C
:1051B0004DFF204638BD00BFC05100209011002097
:1051C0002DE9F047048FDFF8B0A0013498B0804695
:1051D0008946A4B200F10806651EADB2B5F5004FD0
:1051E00047D04A2305AA2946304621F02EF904F576
:1051F0007F543F34A4B20746214601230DF10B0230
:10520000304621F022F9002F014603DC002803DCA0
:105210002C46E1E7002816DCB8F83830AB4209D15B
:1052200042466B1E22F8383F4FF4004102233046BD
:10523000FEF7A4FC2946304621F0A3F8214630466B
:1052400021F09FF8E4E707F160030DEB030700236B
:1052500007F84C3C5246CDF8009003AB05A80396E6
:10526000ADF8104021F05FFA0028D1D018B0BDE8A9
:10527000F0870020FAE700BF956702007FB50123A1
:10528000694603200193FEF751FD044660BB02AA64
:1052900001A90320FEF772FD044610B110F10C0FB6
:1052A00022D10399B1F5803F23D2009A002394685C
:1052B0001846084484421AD30133082BF9D10E4D05
:1052C000A982EB825368AB602846D368EB6321F078
:1052D000FBFA044640B9094E6E602846FFF764FEAB
:1052E00028466E60FFF76EFE204604B070BD9BB28C
:1052F000E5E76FF02004F7E778250020100500208F
:10530000014B1868704700BF24050020F0B5082243
:1053100089B021F0ADFCCB6A03930B6B04934B6B0C
:1053200005938B6B0693CB6B079313466A460C462B
:105330000646002711461046CDE90177009721F077
:10534000AAFB31460546304621F0A5FB216B0391AF
:10535000616B0491A16B0591E16B0544CDE90617E2
:105360001046114621F097FB31460544304621F0A6
:1053700092FB0544206A0090606A0190A06A029046
:10538000A06B0690E06B07903046CDE90477039759
:1053900021F081FB0544606A0090A06AD4F838C00F
:1053A0000190E06A0290CDF810C0606BD4F83CC068
:1053B0000390CDE905C0206A0790304621F06BFBD1
:1053C0000544E06A0090206B0190606B0290206AB7
:1053D0000690A06A07903046CDE90477039721F044
:1053E0007AFC236B0093636B0193A36B0293E36BD3
:1053F0000393636A0693E36A07932D1A08233046E2
:1054000021F069FC636B0093A36B0193E36B029340
:10541000236A0393636A0493A36ACDE90537236B78
:1054200007932D1A0823304621F055FCA36B0093F7
:10543000E36BCDE90137636A0393A36A0493E36ADC
:105440000593636B07932D1A0823304621F043FC24
:105450002D1A10D40D4C35B908223146204621F0C2
:1054600013FC01280FD0082322463146304621F094
:1054700032FC2D1AEFE7054A08233146304621F069
:105480000AFB2D18F8D409B0F0BD00BF9C2D030015
:105490000449431E0F3013F8012F8A5C1A708342AF
:1054A000F9D17047093C0300F0B5264E07460C467B
:1054B0000FCE8DB001AD0FC50FCE0FC596E807001A
:1054C00085E807003846002F38D0002C38D0381F28
:1054D0002146024610344B780D781B0443EA0563DD
:1054E000CD782B438D78043143EA05238C4242F872
:1054F000043FF0D1144C04218A07036916D1C3F389
:105500000742A55C1A0EA25C42EA0562C3F30725B6
:10551000DBB2655DE35C42EA054242EA032221F028
:10552000030330336B4453F82C3C534050F8042FA2
:10553000013153402C290361DED101200DB0F0BDB3
:105540002046FBE710290300093C030030BFFFF7AA
:10555000FDBF00BF114B124A2DE9F041D518DFF80D
:105560004480013DB5FBF3F55D430F4B08EB0304AD
:10557000013CB4FBF3F403FB04540E1B07460B4938
:1055800030462CF0CDFD701942460021083E2CF02B
:10559000EFFD7E6704F10800BDE8F0810100000026
:1055A00000000000080000000400000010290300B3
:1055B000044B99685869884203D003494FF08052E0
:1055C0000A607047FC4F002004ED00E070B5264BE8
:1055D00015469A6A12F0100F9A6A14BF112410240B
:1055E00012F0080F9A6A18BF1224920706460AD5CD
:1055F000586B9A6A140634D519B19A6A22F080025F
:105600009A62132401E06FF01500174B9A6A12F0AA
:10561000010F9A6A18BF142412F0200F9A6A18BF5B
:105620001524D20602D49B6A9B070AD50E4B5B68F1
:10563000190506D5314600F02FFA10B180F309881C
:105640000224094B9A6A920642BF5A6A22F4005217
:105650005A629A6A42F0FF029A6200232B70204637
:1056600070BD6FF01500CCE700ED00E0134B9A6AB7
:1056700012F0007F9A6A14BF1E201D2012F0807F56
:105680009A6A18BF1F2012F4002F9A6A18BF2120AF
:1056900012F4802F9A6A18BF222012F4003F9A6AEF
:1056A00018BF232012F4803F9A6A6FEA02426FEA21
:1056B00012429A6218BF2420704700BF00ED00E03C
:1056C00010B5194B0246986A9C6A10F4805F14BFAB
:1056D0001720162014F4006F9C6A18BF1820A40528
:1056E00009D5986B986A000404D51AB19A6A22F415
:1056F00000429A6219200C4B9A6A12F4806F9A6ADF
:1057000018BF1A20D2050CD49B6A13F4005F18BF8F
:105710001C20054A936A43F47F43936200230B7075
:1057200010BD1B20F5E700BF00ED00E0F0B5484BD1
:105730005B688BB00446C3F30803002585F311882A
:10574000BFF36F8F02F07F40B0F17F4F11D102F0B5
:105750000C0008280DD010074CBF0C460125002274
:10576000033B8DF80720032B05D8DFE803F0246303
:1057700067602C46F3E700239DF80720CAB902AE04
:1057800004F1200720686168324603C20834BC4235
:105790001646F7D1099A002D54D0C2F3080121B959
:1057A0006FEA52226FEA4222099202A9184622F0B9
:1057B000B9F90BB0F0BD264BDA6A9107DBD4DA6A8F
:1057C000002AD8DBDA6A5200D5D55A69A16942F4B9
:1057D00080725A61BFF34F8FBFF36F8F5A6931F8F0
:1057E000021C22F480725A61BFF34F8FBFF36F8F98
:1057F0004DF6027291420AD09A6AD2B24AB10DF1C4
:10580000070201212046FFF7E1FE0346B4E72368C3
:10581000B2E79A6A12F47F4F05D00DF1070101201B
:10582000FFF74EFFF1E79B6AB3F5803FA3D3FFF785
:105830001DFFEAE70DF107020021E3E70DF1070183
:105840000020EDE722F4FF7222F00102ACE700BF76
:1058500000ED00E0024A536943F0100353617047C2
:1058600000ED00E0EFF30880EFF3098101B5724627
:10587000FFF75CFF01BD00BFFDF7ECFF202080F3C8
:10588000118808484FF40461401880F30988EFF349
:1058900014800221084380F31488BFF36F8F00F057
:1058A000BBF8000000750020084B9B6883420BD1B9
:1058B000EFF3058343B1064B5A6842F080525A60B9
:1058C0005A6A22F400425A622CF022BAFC4F00209D
:1058D00000ED00E0094A93686FF00A01D9670849B2
:1058E00098674B6843F080534B60002383F3118823
:1058F000BFF36F8F9368D86F704700BFFC4F0020D5
:1059000000ED00E015498A684FF030001044EFF3D5
:10591000098C80E8F01F202080F31288BFF36F8F7E
:105920000F4F4FF000664A698A603E604FF0740482
:10593000141920680B4C2060906F0023936780F34C
:10594000118804B5104600F025F9BDE8044002F1C5
:10595000300090E8F01F8CF309887047FC4F00205E
:1059600004ED00E0B82500201EF0040F0CBFEFF39B
:105970000880EFF30980816911F8021C0229FFD029
:1059800001B522F0D1F801BD40B2002807DB044A7E
:105990004109012300F01F00834042F82130704785
:1059A00000E100E040B200280CDB4309064900F0AA
:1059B0001F0020330122824041F82320BFF34F8F84
:1059C000BFF36F8F704700BF00E100E0054B420955
:1059D00000F01F0053F82220012303FA00F01040CA
:1059E000704700BF00E100E040B20028A8BF00F10E
:1059F000604001F10101B8BF064B4FEA4111ACBF55
:105A000000F5614000F00F00C9B2B4BF195480F82E
:105A10000013704714ED00E00F4A08B50F4B22F059
:105A20007F029A60BFF34F8FBFF36F8FD3F8882048
:105A300022F47002C3F88820EFF3148323F00403E8
:105A400083F31488BFF36F8F1DF00CF81EF0DAF8A3
:105A500000F074F81DF058F80000000000ED00E0C0
:105A600042F8203C009B42F81C3C0A49019B42F84A
:105A7000183C029B42F8143C21F001014FF0807366
:105A800042F8043C42F8081C0023203A0265836770
:105A9000704700BF05360000094A0346906870B1A0
:105AA00013F1160F406E05D0A0F140029A4205D8BE
:105AB000834203D2814228BF0020704700207047F4
:105AC000FC4F002008B514460A4A0B4B9060426F09
:105AD0001A600D4600F05EF8204685F30988002123
